:020000040800F2
:1000000030330020F9020008C7090008B7080008CB
:10001000C5090008C1070008DD0E00080000000047
:10002000000000000000000000000000390200088D
:10003000C30700080000000095020008F10B00084B
:100040001303000813030008130300081303000838
:100050001303000813030008130300081303000828
:100060001303000813030008130300081303000818
:100070001303000813030008130300081303000808
:1000800013030008130300081303000813030008F8
:1000900013030008130300081303000813030008E8
:1000A00013030008130300081303000813030008D8
:1000B00013030008610C0008B10C000813030008CA
:1000C00013030008130300081303000813030008B8
:1000D00013030008210D0008130300081303000890
:1000E0001303000813030008130300081303000898
:1000F0001303000813030008130300081303000888
:100100001303000813030008130300081303000877
:100110001303000813030008130300081303000867
:100120001303000813030008130300081303000857
:100130001303000813030008130300081303000847
:100140001303000813030008130300081303000837
:100150001303000813030008130300081303000827
:100160001303000813030008130300081303000817
:100170001303000813030008130300081303000807
:10018000130300081303000800F002F800F044F81D
:100190000AA090E8000C82448344AAF10107DA45E2
:1001A00001D100F039F8AFF2090EBAE80F0013F0F0
:1001B000010F18BFFB1A43F001031847682A00001B
:1001C000882A0000103A24BF78C878C1FAD85207AC
:1001D00024BF30C830C144BF04680C6070470000C1
:1001E0000023002400250026103A28BF78C1FBD840
:1001F000520728BF30C148BF0B607047642900F028
:100200000781732900F01482002070471FB502F0A7
:1002100003FD1FBD10B510BD00F09FFA1146FFF79A
:10022000F5FF00F0ABFE00F0BDFA03B4FFF7F2FFFC
:1002300003BC00F054FE00002C4B19680868B0E8BD
:10024000F04F80F30988BFF36F8F4FF0000080F309
:10025000118870470000000008480068006880F3BB
:1002600008884FF0000080F3148862B661B6BFF3CF
:100270004F8FBFF36F8F00DF00BF00BF08ED00E0BE
:10028000DFF80C00016841F470010160704700BFA5
:1002900088ED00E0EFF30980BFF36F8F134B1A680E
:1002A0001EF0100F08BF20ED108A20E9F04F1060FB
:1002B00009B44FF0500080F31188BFF34F8FBFF3A4
:1002C0006F8F01F057FF4FF0000080F3118809BCD9
:1002D00019680868B0E8F04F1EF0100F08BFB0ECC6
:1002E000108A80F30988BFF36F8F704720000020C9
:1002F000EFF3058070470000094880470948004730
:10030000FEE7FEE7FEE7FEE7FEE7FEE7FEE7FEE7C5
:10031000FEE7FEE704480549054A064B7047000022
:10032000050C000889010008302D00203033002022
:10033000302F0020302F0020704700000FB40449F8
:1003400010B503AA029800F077F910BC5DF814FB11
:10035000080000202DE9F0410E46044600202062EE
:100360002046E168884730B3252805D0D4E901212B
:100370009047206A401CF2E7E16820460027884742
:10038000050018D0A5F14100192802D820354FF4F6
:1003900000673246294620462760FFF72FFF40B10D
:1003A000012804D0F61D26F007060836D8E7361DCA
:1003B000D6E72846DAE7206ABDE8F08170B50C463A
:1003C0000546012A05D02878800600D5EA69002371
:1003D00002E0012305E05B1C934202D2E05C0028AE
:1003E000F9D1A869E618C01AA861286A18442862D9
:1003F0002846AFF3008004E0D5E9012114F8010B91
:100400009047B442F8D32846AFF3008070BD000097
:100410002DE9F0410646002410687529314616A5DD
:1004200010D0AFF30080002802DA404213A507E0A5
:1004300031688A0701D512A502E0490704D511A544
:10044000012401E0AFF3008000210A2206F1240715
:1004500009E0B0FBF2FCB0FBF2F302FB1C00303011
:1004600078541846491C0028F3D123462A463046C2
:10047000BDE8F04100F059B8000000002D00000078
:100480002B00000020000000032A40F2308010F012
:10049000030C00F0158011F8013BBCF1020F62441F
:1004A00098BF11F801CB00F8013B38BF11F8013BB0
:1004B000A2F1040298BF00F801CB38BF00F8013B5D
:1004C00011F0030300F0CA80083AC0F0088051F828
:1004D000043B083A51F804CBA0E80810F5E7121DD8
:1004E0005CBF51F8043B40F8043BAFF30080D207F7
:1004F00024BF11F8013B11F801CB48BF11F8012BC3
:1005000024BF00F8013B00F801CB48BF00F8012BE5
:10051000704702F0FF0343EA032242EA024200F07E
:10052000D1B870477047704770472DE9F0470D46C6
:1005300099469246044600F124080168880604D5CD
:10054000E06921F01001216000E00120A84201DDF6
:10055000471B00E00027A1697A1902EB0900081A7D
:10056000A0612078C00602D42046AFF300800026A8
:1005700008E0D4E901211AF806009047206A401CDF
:10058000761C20624E45F4DB2078C0060AD5204652
:10059000AFF3008006E0D4E9012130209047206AC3
:1005A000401C2062381EA7F10107F4DC07E0D4E903
:1005B000012118F805009047206A401C2062281E7F
:1005C000A5F10105F3DC2046AFF30080207800069A
:1005D00002D50220BDE8F0870120FBE701694A1C33
:1005E00002610878704700B58FB0CDE90131002174
:1005F000059105497944CDE9031011466846FFF796
:10060000A9FE0FB000BD0000E5FFFFFF10B5436974
:1006100013B1AFF3008001E0FFF7D0FE012010BD61
:10062000127800F124010A7000224A700122EDE7DD
:1006300011684FF0FF32E9E7074B70B50D467B4478
:10064000FFF7D1FF0446284600F05CF810B14FF0E8
:10065000FF3070BD204670BD2709000010B5203A5C
:10066000C0F00B80B1E81850203AA0E81850B1E86B
:100670001850A0E81850BFF4F5AF5FEA027C24BF21
:10068000B1E81850A0E8185044BF18C918C0BDE818
:1006900010405FEA827C24BF51F8043B40F8043BE1
:1006A00008BF7047D20728BF31F8023B48BF11F896
:1006B000012B28BF20F8023B48BF00F8012B7047F0
:1006C0004FF000020429C0F0128010F0030C00F07B
:1006D0001F80CCF1040CBCF1020F18BF00F8012BF5
:1006E000A8BF20F8022BA1EB0C0100F011B85FEAC3
:1006F000C17C24BF00F8012B00F8012B48BF00F893
:10070000012B7047007B00F0800070474FF0000223
:1007100000B5134694469646203922BFA0E80C50F7
:10072000A0E80C50B1F12001BFF4F7AF090728BFD2
:10073000A0E80C5048BF0CC05DF804EB890028BF4E
:1007400040F8042B08BF704748BF20F8022B11F077
:10075000804F18BF00F8012B7047754600F02CF849
:10076000AE4605006946534620F00700854618B09E
:1007700020B5FFF7CFFDBDE820404FF000064FF059
:1007800000074FF000084FF0000B21F00701AC46C6
:10079000ACE8C009ACE8C009ACE8C009ACE8C009E5
:1007A0008D46704710B50446AFF300802046BDE883
:1007B0001040FFF73ABD000000487047D02C0020E1
:1007C000FEE770471CB507480121CDE90010002362
:1007D000802205A1074801F069FFBDE81C4001F037
:1007E00079BC0000B400002073746172745F74619E
:1007F000736B0000F91900082DE9F0410022012770
:100800004FF0030C07FA02F50B682B40AB422CD1DA
:10081000066853000CFA03F4A64306600E79D0F87C
:1008200000809E4046EA080606600E79012E01D03F
:10083000022E12D18668A64386604E79D0F80880D1
:100840009E4046EA080686604668AE4346604568B4
:100850008E799640B6B235434560C568A543C560FC
:10086000CC799C40C3681C43C460521C102AC9D375
:10087000BDE8F08110B54B07DB0E9A40C90800EBCC
:100880008100016A0F249C40A1430162016A114367
:10089000016210BD0246002012690A4200D0012008
:1008A000704742694A4042617047002A01D0018383
:1008B000704741837047FEE71CB50121102000F00E
:1008C000C1F81020009000208DF8040003208DF85E
:1008D000050001208DF80700054C69462046FFF70A
:1008E0008BFF0821009169462046FFF785FF1CBD5C
:1008F0000010024070B501251A4C002800D0257068
:100900002078194E48B110213046FFF7C3FF58B187
:1009100008213046FFF7BEFF30B110213046FFF707
:10092000B9FF012814D01AE00A2000F00FFB0020C4
:10093000207010213046FFF7ADFF28B10821304666
:10094000FFF7A8FF10B10AE0012070BD022070BDC2
:1009500008213046FFF79EFF012800D125700020B6
:1009600070BD00001C000020001002407CB5012179
:10097000202000F067F84FF40074009401208DF8F7
:10098000040000218DF8061003218DF805108DF864
:1009900007000B4E69463046FFF72EFF65000095B5
:1009A00069463046FFF728FF002221463046FFF710
:1009B0007CFF002229463046FFF777FF7CBD000010
:1009C00000140240FEE7704730B50F23C2780125BE
:1009D0000178002A1FD0154A126802F4E062C2F5BD
:1009E000E062C2F30722C2F10404D3404278A2407D
:1009F00084781C401443220101F1E02181F8002495
:100A0000007800F01F018D404009800000F1E020D7
:100A1000C0F8005130BD01F01F008540480980003A
:100A200000F1E020C0F8805130BD00000CED00E086
:100A30000249084302490860704700000000FA05B7
:100A40000CED00E0054A002903D011680143116054
:100A500070471168814311607047000030380240D0
:100A6000054A002903D011680143116070471168DD
:100A700081431160704700004438024070B5244B38
:100A8000196801F00C01234C00291ED066100429BE
:100A90001DD008291DD00460196801F0F001090972
:100AA0001D4A545C0168E14041601C6804F4E05454
:100AB000A40A145D21FA04F484601B6803F4604303
:100AC0005B0BD25CD140C16070BD0460E4E706609E
:100AD000E2E70F4A121F1168C1F38055116801F057
:100AE0003F0135B1B6FBF1F11468C4F388146143DA
:100AF00005E0B4FBF1F11468C4F388146143126893
:100B0000C2F30142521C5200B1FBF2F10160C3E793
:100B1000083802400024F4000C0000200CB500222C
:100B2000019200922749086840F4803008604FF431
:100B3000A043086800F4003000900198401C019028
:100B4000009810B901989842F3D10868800302D543
:100B50000120009000E000920098012831D119484E
:100B60004030026842F0805202601748026842F446
:100B7000404202601348083002680260026842F492
:100B800000420260026842F4A0520260021F0F4B52
:100B900013600A6842F080720A600A689201FCD50C
:100BA0000B4A40F205711160016821F003010160F8
:100BB000016841F0020101600168C1F3810102296D
:100BC000FAD10CBD003802400070004008544007C4
:100BD000003C02404FF0E021042804D0086920F0D6
:100BE000040008617047086940F00400086170471C
:100BF00010B501F08BFD012803D0BDE8104001F0D5
:100C000099BB10BD10B51248016841F47001016034
:100C10001048016841F0010101600E4A00210832CC
:100C2000116002680C4B1A400260031D0B4A1A60E7
:100C3000026822F48022026006480C300160FFF74F
:100C40006DFF03494FF000608039086010BD00005F
:100C500088ED00E000380240FFFFF6FE103000246F
:100C600010B50A4C0121204600F04DF801280CD1A6
:100C700041020748FFF715FE06A0FFF75FFB20467D
:100C8000BDE81040012100F03BB810BD0004004059
:100C90000014024054494D33205052494F20342013
:100CA00052554E4E494E472E2E2E0D0A0000000082
:100CB00010B50A4C0121204600F025F801280CD17E
:100CC00081020748FFF7EDFD06A0FFF737FB20463E
:100CD000BDE81040012100F013B810BD000800402D
:100CE0000014024054494D34205052494F203620C0
:100CF00052554E4E494E472E2E2E0D0A0000000032
:100D0000C9430182704702460020138A0B40928932
:100D10000A40002B02D0002A00D0012070470000BA
:100D200070B5164C40F22551204600F039F80028E5
:100D30000ED0204600F0CEF8C1B2114A108803044C
:100D400006D444044FF0000307D50A2901D01380CC
:100D500070BD40F40040108070BD0D290AD0094DCF
:100D6000C0F30D042955401C80B21080C728F3D968
:100D7000138070BD40F48040108070BD00100140B1
:100D800004000020BC000020002904D0818941F427
:100D9000005181817047818921F400518181704720
:100DA00070B5002440F66A12C1F3421301F01F052A
:100DB000012606FA05F2012B0CD0022B0DD0838AF6
:100DC0001340090A8E40008830400BB100B1012465
:100DD000204670BD83891340F3E7038A1340F0E790
:100DE00010B540F66A13C1F3421301F01F0401214C
:100DF000A140012B07D0022B07D014303AB1026872
:100E00000A43026010BD0C30F8E71030F6E70268C4
:100E10008A43026010BD00007FB504460D46208A5B
:100E200020F44051E88808432082A08941F20C61F7
:100E30008843A9882A8911436A8902431143A18101
:100E4000A08A20F44071A8890843A0826846FFF771
:100E500015FE1E48844202D01D48844201D10398E9
:100E600000E00298A189090408D500EBC00101EB5C
:100E7000001029684900B0FBF1F007E000EBC00169
:100E800001EB001029688900B0FBF1F06422B0FB8F
:100E9000F2F109010B096FF018056B4300EB8300B9
:100EA000A3891D044FF0320307D503EBC000B0FB4C
:100EB000F2F000F00700084306E003EB0010B0FB7F
:100EC000F2F000F00F00084320817FBD00100140C8
:100ED000001401408088C0F308007047FEE77047A7
:100EE00010B504460420FFF775FE094804704FF45E
:100EF0007A714C43012141804FF0E021086940F0B4
:100F0000020008614C61086940F00100086110BDF1
:100F10000000002070B500214FF0E0256C690A4AFE
:100F200012785043AB69AA699A42FCD003D2A3EB72
:100F30000203194403E0A4EB0206334419441346A8
:100F40008142F0D370BD00000000002070B505465E
:100F500000244FF47A7603E03046FFF7DBFF641C91
:100F6000AC42F9D370BD000003490A885206FCD593
:100F7000C2B28A807047000000100140A820FFF72D
:100F8000AFFF4FF44070FFF753FDFFF7EFFCFFF7A3
:100F900093FC4FF4E13000F0BBFDFFF713FCFEE7DC
:100FA0002DE9F04104460F46204DEE6829680020E7
:100FB00081F859002868001D00F000FE38B9286843
:100FC00090F82C1001208840296981432961601C18
:100FD00015D1A7B1164948682A68906082682B68C5
:100FE000DA602A688368121D5A602A68121D8260BE
:100FF000286841610868401C0860BDE8F0813444FD
:1010000028684460B44206D22968E86B091DBDE82F
:10101000F04100F0F4BD2968A86B091D00F0EFFD58
:10102000A86A8442E9D2AC62E7E700002000002011
:101030009404002070B5044600F006FE254DA86813
:10104000401CA860286810B1686938B10CE02C60B9
:10105000A868012808D100F0ABF905E02868E16A2A
:10106000C06A884200D82C60686A401C686260646C
:10107000E06A01212A69814011432961164A00EB87
:10108000800002EB80004068A0608168E1608368B6
:10109000211D59608160E06A00EB800002EB800155
:1010A000616152F82010491C42F8201000F008FE3F
:1010B000686900280CD02868E16AC06A884207D2B3
:1010C00006494FF080500860BFF34F8FBFF36F8F1A
:1010D00070BD000020000020C401002004ED00E0ED
:1010E00010B500F0B1FD0E4C2068A0B90D4800F01D
:1010F00078FD0C48143000F074FD0A48E0601430AC
:10110000206100221021052001F02AF9206010B191
:1011100005A100F06BFEBDE8104000F0D1BD00005D
:1011200060000020A8040020546D725100000000EF
:1011300070B50C4D0C4E11E000F086FDF068C468EF
:10114000201D00F03BFDA868401EA8606868401E96
:10115000686000F0B5FD204600F053F8686800288C
:10116000EAD170BD200000208004002030B40B467E
:10117000026C002A0CD0C1681144C1608468A1428D
:1011800001D30168C160C16830BC1846FFF77CB963
:1011900030BC70472DE9F041044617460026A56B88
:1011A000226C002A10D0C7B1E068FFF76DF9E16842
:1011B000206C091AE1602268914202D2A168081AE3
:1011C000E060022F16D017E02068A8B9A06801F0EF
:1011D00059FB06460020A0600EE06068FFF754F956
:1011E000216C606808446060A168884204D320686C
:1011F000606001E005B16D1E6D1CA5633046BDE861
:10120000F08110B50446206B00F08EFD2046BDE84D
:10121000104000F089BD00000749CA681168002924
:1012200004D00021016019B1002070470121F9E7C5
:10123000D068006870470000600000204FF4205123
:101240000F48420706D0C01D20F007000C49411A84
:10125000C1F520510B4A1060002353600144083946
:1012600021F00701183A11604B600B600B1A4360C4
:1012700001604068906050604FF0004050617047DE
:10128000D004002098000020074E4FF08054074DF6
:10129000FFF74EFF30680128FAD92C60BFF34F8F5B
:1012A000BFF36F8FF4E70000C401002004ED00E0FD
:1012B00070B51D46049C00290BD02260E0632164B8
:1012C0000121204601F086F884F850500020A064E7
:1012D00070BD2460F2E700002DE9F05FDDE90A59F6
:1012E0000C9C82460E4617469B46B900A522206BF1
:1012F000FFF70FF9206B7F1E00EB870020F0070837
:101300005FEA487005D04FF4587220A124A0FFF77F
:1013100015F8002766B100202218315C82F83410DD
:10132000315C11B1401C1028F6D384F8437001E001
:1013300084F83470202D05D340F2973213A118A001
:10134000FEF7FCFF202D00D31F25E562E56427652D
:10135000201D00F051FC04F1180000F04DFC246148
:10136000C5F12000A0616462676584F8587084F854
:1013700059705A465146404600F02CFB2060B9F1A6
:10138000000F01D0C9F80040BDE8F09F2E2E5C464A
:1013900072656552544F535C7461736B732E6300B6
:1013A0004572726F723A2025732C2025640D0A0055
:1013B00070B50024114D04EB840005EB800000F0B3
:1013C00010FC641C202CF6D30D4800F00AFC0C48DD
:1013D000143000F006FC0A48283000F002FC0848EF
:1013E0003C3000F0FEFB0648503000F0FAFB0548A8
:1013F000034981631431C16370BD0000C401002042
:10140000440400202000002030B5134900E01146BC
:101410000A688242FBD34B685C18844203D140685F
:101420001844486008460D6844682318AB420DD143
:10143000094B183B1B689A4206D05268224442600E
:101440000A681268026002E0036000E00260814204
:1014500000D0086030BD00009800002070B5002466
:10146000416000610C4D91420AD8D11A82699142C3
:1014700001D301240EE0011D286900F0C0FB09E042
:101480009A4203D2994201D3012403E0011DE86886
:1014900000F0B5FB204670BD6000002010B504468A
:1014A00000F0D2FBA06B20B1002400F009FC204624
:1014B00010BD0124F9E70000F1B50098846C002606
:1014C000002C05D140F6D53219A11EA0FEF736FF3B
:1014D000A06BE16B884205D340F6D63214A119A067
:1014E000FEF72CFFA06BE16B88421ED294F94550A9
:1014F000002269462046FFF74DFE0646681C02D0D2
:101500007F2D09D00EE0606A78B104F1240001F06B
:1015100023FA50B1012608E040F6F63204A109A0F2
:10152000FEF70CFF6D1C84F845503046F8BD0000F6
:101530002E2E5C4672656552544F535C717565750D
:10154000652E63004572726F723A2025732C202538
:10155000640D0A0070B505460E460D48C068C068A7
:10156000C468201D00F02AFB94F82800410705D527
:1015700032462946204600F0D1F803E000F0FE0094
:1015800084F828002046216ABDE870400847000022
:101590006000002070B586B03A4E69E002980028DD
:1015A00003DADDE9032005999047029800285FDB04
:1015B000049C606910B1201D00F000FB01A800F040
:1015C000D1F8054602980A2852D2DFE800F051050A
:1015D00005282E450505282E94F8280040F0010026
:1015E00084F828000398A169034601442A4620464E
:1015F000FFF734FF78B394F82800410707D5039824
:10160000A1692A460144204600F088F803E000F072
:10161000FE0084F82800216A2046884728E014F854
:10162000280F00F0FE00207022E094F8280040F01F
:10163000010084F828000398A06128B940F25932CB
:1016400011A117A0FEF77AFEA0692B4641192A4680
:101650002046FFF703FF0BE094F82800810703D42E
:10166000204600F061FB03E000F0FE0084F8280053
:10167000002202A9306800F019FF00288ED106B0C0
:1016800070BD0000600000202E2E5C467265655221
:10169000544F535C74696D6572732E6300000000D3
:1016A0004572726F723A2025732C2025640D0A0052
:1016B000F8B506460D4600F055FD684600F052F8B4
:1016C0000446009810B101F0C7F9F8BD45B9A6422B
:1016D00006D801F0C1F921463046FFF73BFFF8BDBF
:1016E0000C481DB10169096891B10025311B2A46DA
:1016F000006800F0B3FB01F0AFF90028EFD1064914
:101700004FF080500860BFF34F8FBFF36F8FF8BD6D
:101710000125EBE76000002004ED00E070B5054610
:101720000C46164604E0A8690444296A28468847FE
:10173000A8692346011932462846FFF78FFE002884
:10174000F1D170BD0648816B0968002904D0816B16
:10175000C9680968816270474FF0FF318162704744
:101760002000002070B5054600F0DEFF0446074E5D
:10177000B068844204D200F00BF80120286001E038
:1017800000202860B460204670BD0000600000208A
:1017900070B5094C4FF0FF3504E0C0680068294679
:1017A000FFF7D8FEE0680268002AF6D1E0682169F8
:1017B000E160206170BD00006000002008484068C2
:1017C000401C04D0E92207A111A0FEF7B7FD50206C
:1017D00080F31188BFF34F8FBFF36F8FFEE70000D8
:1017E000740000202E2E5C4672656552544F535C87
:1017F000706F727461626C655C525644535C415206
:101800004D5F434D34465C706F72742E6300000070
:101810004572726F723A2025732C2025640D0A00E0
:1018200008B56846FFF7F8FC0099FFF741FFFFF79E
:10183000B1FEF6E72DE9F041044600F005FA94F90F
:10184000455004F1240612E0A06C30B12046FFF7A9
:1018500033FE50B100F0D0FB07E0606A48B130467B
:1018600001F07AF808B100F0C7FB6D1E6DB2002DD3
:10187000EADC4FF0FF3684F8456000F021FA00F012
:10188000E3F994F9445004F1100709E0206948B1E4
:10189000384601F061F808B100F0AEFB6D1E6DB284
:1018A000002DF3DC84F84460BDE8F04100F008BA94
:1018B0002DE9F0410446002600F054FC364F38680C
:1018C00008B9FFF7BBFC7869044258D1BCB104F1F8
:1018D0000805A54213D9680712D005F00700C0F12A
:1018E00008002844A84208D90546680708D09C2269
:1018F0002AA134A0FEF722FD02E0002500E0002529
:10190000002D3CD07868854239D8234918310846E3
:10191000046801E0214604466068A84202D22068BB
:101920000028F7D13868844229D00E68083620682C
:1019300008606068401B102811D904EB05085FEAB5
:10194000487004D0CF2215A11EA0FEF7F7FC6068F6
:10195000401BC8F8040065604046FFF755FD61680C
:101960007868401A7860BA68904200D2B8607869A6
:101970000143616000202060F868401CF86001F0BD
:101980006BF8700705D04FF4887204A10DA0FEF724
:10199000D5FC3046BDE8F081800000202E2E5C464C
:1019A00072656552544F535C706F727461626C65FE
:1019B0005C4D656D4D616E675C686561705F342E6E
:1019C000630000004572726F723A2025732C202547
:1019D000640D0A0024384FF08073036221F0010186
:1019E000C1610449816142606FF0020140F8201931
:1019F00070470000BD1700081CB500F025F9084825
:101A00000221CDE900100023802206A1074800F042
:101A10004DFE002000F07EFABDE81C4000F050B9F9
:101A2000B80000207461736B31000000311A0008A7
:101A3000002400250020FEF75DFF012802D00228C7
:101A400014D10CE06420FFF733FF05461DB10FA051
:101A5000FEF774FC0AE016A0FEF770FC06E02DB15C
:101A60001BA0FEF76BFC284600F05EF92046641CC4
:101A7000E4B2322806D9002400F0BCFB014619A0CC
:101A8000FEF75CFC0A2000F00DFAD3E74D656D6FA0
:101A90007279206170706C69636174696F6E207314
:101AA00075636365737366756C21200D0A00000011
:101AB0004D656D6F7279206170706C6963617469D6
:101AC0006F6E206661696C656421200D0A0000005C
:101AD00052656C65617365206D656D6F727921204B
:101AE0000D0A00005468652072656D61696E696E4B
:101AF000672066726565206D656D6F727920736908
:101B00007A652069733A202564200D0A00000000E0
:101B1000F0B587B0054601210846FEF793FF012185
:101B20001020FEF79DFF234F072209213846FEF7BC
:101B3000A1FE07220A213846FEF79CFE4FF4C06042
:101B4000059002208DF818008DF8190000248DF8FA
:101B50001A4001268DF81B6005A93846FEF74CFE99
:101B60000195ADF80840ADF80A40ADF80C40ADF86D
:101B700010400C20ADF80E000F4D01A92846FFF7CC
:101B80004BF901212846FFF7FFF8012240F22551C9
:101B90002846FFF725F925208DF8000005208DF84F
:101BA00001008DF802408DF803606846FEF70CFFD7
:101BB00007B0F0BD00000240001001400169D0E90B
:101BC00001329A60D0E901235A604A68824201D109
:101BD00082684A60002202610868401E0860086846
:101BE000704700F1080141604FF0FF328260C16030
:101BF000016100210160704700210161704730B52B
:101C00000C68621C02D000F1080202E0026904E0E4
:101C10001A4653681D68A542FAD953684B6099600B
:101C20008A60516008610168491C016030BD4268EA
:101C30004A6093688B60936859609160086101689D
:101C4000491C016070470000502080F31188BFF3E9
:101C50004F8FBFF36F8F09494868401C48600128C7
:101C60000AD10748006810F0FF0F05D04FF4DB726F
:101C700004A10FA0FEF762BB7047000074000020B3
:101C800004ED00E02E2E5C4672656552544F535CA5
:101C9000706F727461626C655C525644535C415261
:101CA0004D5F434D34465C706F72742E63000000CC
:101CB0004572726F723A2025732C2025640D0A003C
:101CC00010B5094C6068002805D140F2BD1207A18B
:101CD00011A0FEF733FB6068401E6060002801D150
:101CE00080F3118810BD0000740000202E2E5C4689
:101CF00072656552544F535C706F727461626C65AB
:101D00005C525644535C41524D5F434D34465C70C7
:101D10006F72742E630000004572726F723A202554
:101D2000732C2025640D0A0070B500282DD00838CA
:101D30000446164D60686969084205D14FF49272F5
:101D400013A11DA0FEF7FAFA206828B140F225126F
:101D50000FA119A0FEF7F2FA60686969084214D071
:101D60002268002A11D18843606000F0FBF96068A6
:101D70006968084468602046FFF746FB2869401CF4
:101D80002861BDE8704000F067BE70BD8000002093
:101D90002E2E5C4672656552544F535C706F7274A0
:101DA00061626C655C4D656D4D616E675C68656117
:101DB000705F342E630000004572726F723A202506
:101DC000732C2025640D0A004FF0E02000210161F2
:101DD000816105494FF47A720968B1FBF2F1491E3D
:101DE0004161072101617047A000002070B50546E0
:101DF0000E46002D05D140F6C8220EA112A0FEF716
:101E00009DFA00238EB10022134800EBC2046168E2
:101E1000A94202D100EBC20307E01BB950F832100F
:101E200001B92346521C082AEFD3002B01D01E60B3
:101E30005D6070BD2E2E5C4672656552544F535CDA
:101E400071756575652E63004572726F723A202553
:101E5000732C2025640D0A008401002070B504460F
:101E60000D461646FFF7F0FE94F944304FF000009F
:101E70005B1C01D184F8440094F94510491C01D140
:101E800084F84500FFF71CFFA06B28B932462946AD
:101E900004F1240000F0E2F82046BDE87040FFF7AE
:101EA000C9BC000010B504460020002C10D00E481C
:101EB000406B28B140F249520CA111A0FEF73EFA46
:101EC00000F050F900212046FFF76AF800F0C4FD49
:101ED000002807D10E494FF080500860BFF34F8FA4
:101EE000BFF36F8F10BD0000200000202E2E5C4637
:101EF00072656552544F535C7461736B732E63004B
:101F00004572726F723A2025732C2025640D0A00E9
:101F100004ED00E070B50446FFF796FE254D04B9C8
:101F20002C68201DFFF74AFE58B9E06A224A00EBF0
:101F3000800152F8211021B901218140286988438C
:101F40002861A06A18B104F11800FFF737FE686A2B
:101F5000401C68622868844207D1211D1748FFF79A
:101F600066FE6868401C686004E0A868401EA860BF
:101F7000FFF7E8FBFFF7A4FE2868844202D0204662
:101F8000FFF73FF96869002812D0286884420FD112
:101F9000686B28B140F2DC4209A10EA0FEF7CEF931
:101FA00010494FF080500860BFF34F8FBFF36F8F21
:101FB00070BD000020000020C4010020800400202B
:101FC0002E2E5C4672656552544F535C7461736B80
:101FD000732E63004572726F723A2025732C202590
:101FE000640D0A0004ED00E002490A6A0260C96853
:101FF000416070472000002001490120C8617047FE
:102000002000002070B504460D46002C05D140F696
:102010001C4208A10CA0FEF791F90F480168204668
:102020001831FFF7ECFD2846BDE870400121FEF7AE
:10203000B7BF00002E2E5C4672656552544F535C4C
:102040007461736B732E63004572726F723A202550
:10205000732C2025640D0A002000002070B5044672
:102060000D461646002C05D140F652420FA114A091
:10207000FEF764F9606816490A68D06182680B68E7
:102080001A620A68836818325A600A6818328260D5
:10209000086884622068401C20600EB14FF0FF3554
:1020A00031462846BDE87040FEF77ABF2E2E5C46CA
:1020B00072656552544F535C7461736B732E630089
:1020C0004572726F723A2025732C2025640D0A0028
:1020D000200000207CB516480025CDE900502B4695
:1020E000802214A1154800F0E1FA012801D100F086
:1020F00059FD0F4C2C3C012802D0401C10D015E09B
:10210000502080F31188BFF34F8FBFF36F8F4FF0D4
:10211000FF30A06201206061E56000F071F805E029
:102120004FF4046206A10BA0FEF708F9206B7CBDFA
:102130004C00002049444C45000000008912000872
:102140002E2E5C4672656552544F535C7461736BFE
:10215000732E63004572726F723A2025732C20250E
:10216000640D0A000248416B491C4163704700003E
:102170002000002070B5144D686B002802D00120AB
:10218000E86170BD0020E8612869B0FA80F0C0F114
:102190001F000E4E00EB800456F8240028B940F6CC
:1021A00002420BA10FA0FEF7C9F806EB84004168BC
:1021B0004968416000F10802914201D149684160DB
:1021C0004068C068286070BD20000020C401002065
:1021D0002E2E5C4672656552544F535C7461736B6E
:1021E000732E63004572726F723A2025732C20257E
:1021F000640D0A000148406870470000800000201C
:102200007CB5384C21683848814205D140F24312F0
:1022100036A141A0FEF792F820683349491E884252
:1022200005D14FF4A27231A13BA0FEF787F83E4DD5
:1022300028780190FF202870287800909DF80000F1
:102240009DF8001000F0F000884205D040F25D12C9
:1022500026A131A0FEF772F89DF80000334C00F083
:10226000500020700720A06006E0A068401EA0601B
:102270009DF80000400000909DF800000006F4D496
:10228000A068032805D040F2711218A122A0FEF721
:1022900055F8A068032805D04FF4BD7213A11EA005
:1022A000FEF74CF8207A000200F4E060A06001988C
:1022B00028700C482030016841F470010160016809
:1022C00041F070410160FFF77FFD00206060FDF785
:1022D000D7FF1748016841F040410160FDF7BCFF9E
:1022E00000207CBD00ED00E071C20F412E2E5C4647
:1022F00072656552544F535C706F727461626C65A5
:102300005C525644535C41524D5F434D34465C70C1
:102310006F72742E630000004572726F723A20254E
:10232000732C2025640D0A0000E400E074000020F6
:1023300034EF00E010B5502080F31188BFF34F8FC9
:10234000BFF36F8F00F0F6F918B104494FF08050D9
:102350000860002080F3118810BD000004ED00E04B
:10236000F8B505460E4617460024002D17D0601E0E
:10237000B0FBF5F0B04212D305FB06F010F1550F9B
:102380000DD85430FFF794FA044674B12246543203
:102390003B46314628460094FEF78AFF05E04FF49D
:1023A000E37203A107A0FDF7C9FF2046F8BD0000B6
:1023B0002E2E5C4672656552544F535C717565757F
:1023C000652E63004572726F723A2025732C2025AA
:1023D000640D0A002DE9F04104460F460125002C4A
:1023E00005D14FF4887227A12BA0FDF7A7FF20008D
:1023F0003CD0E06BC8B34FF0FF36B6FBF0F1206C79
:10240000814233D3FFF720FCD4E90F20216802FB7F
:102410000011A1600021A16321686160E06B226866
:10242000216C401E00FB0121E16084F8446084F8C7
:10243000456004F1100047B1FFF7D3FB04F124001D
:10244000FFF7CFFBFFF73CFC11E021690029F9D031
:1024500000F082FA0028F5D013494FF08050086050
:10246000BFF34F8FBFF36F8FECE7FFE700252DB968
:1024700040F2451203A108A0FDF760FF2846BDE821
:10248000F08100002E2E5C4672656552544F535CFD
:1024900071756575652E63004572726F723A2025FD
:1024A000732C2025640D0A0004ED00E02DE9F747A8
:1024B00083B004468A460026002C05D140F25152D2
:1024C00044A149A0FDF73AFFBAF1000F07D1206CF3
:1024D00028B140F255523FA143A0FDF72FFF00F075
:1024E00015F938B9059828B140F25A5239A13EA0E1
:1024F000FDF724FF00274FF08058DFF8FC90FFF72E
:10250000A3FBA56BC5B151462046FEF72FFE6D1EFD
:10251000A563206950B104F1100000F01DFA28B144
:10252000C9F80080BFF34F8FBFF36F8FFFF7C8FB71
:10253000012006B0BDE8F087059808B126B107E094
:10254000FFF7BEFB0020F4E701A8FFF74DFD0126D1
:10255000FFF7B6FBFFF706FEFFF776FB94F94400A2
:10256000401C01D184F8447094F94500401C01D10D
:1025700084F84570FFF7A4FB05A901A800F03EF818
:1025800058B12046FFF756F900F066FA2046FEF7EC
:1025900085FF0028B3D00020CBE72046FEF77EFF62
:1025A00090B104F124000599FFF72CFD2046FFF7B8
:1025B00041F900F051FA0028A1D1C9F80080BFF319
:1025C0004F8FBFF36F8F9AE72046FFF733F900F084
:1025D00043FA94E72E2E5C4672656552544F535C65
:1025E00071756575652E63004572726F723A2025AC
:1025F000732C2025640D0A0004ED00E02DE9F04164
:1026000004460D46002C05D140F6FD421DA122A036
:10261000FDF794FE2DB940F6FE421AA11EA0FDF76B
:102620008DFEFFF711FB204EF2686368D01A316807
:10263000002791F8591021B1306880F859700124B1
:102640001AE02968B1F1FF3F09D0D4F800C0366A1A
:10265000B44506D0934204D801242F600CE0002436
:102660000AE0814206D9081A28602046FFF7BCFC20
:10267000002401E02F600124FFF722FB2046BDE883
:10268000F08100002E2E5C4672656552544F535CFB
:102690007461736B732E63004572726F723A2025FA
:1026A000732C2025640D0A00200000202DE9FF5F17
:1026B0008146DDE90E788A4616469B46B000FFF754
:1026C000F7F8054628000AD05C20FFF7F1F8044629
:1026D0000CB1256304E02846FFF726FB00E0002448
:1026E0008CB10020CDE90240CDE900785B4632464E
:1026F00051464846FEF7F0FD2046FEF79BFC0120C0
:1027000004B0BDE8F09F4FF0FF30F9E7054841699C
:10271000002903D0406B18B100207047012070479A
:1027200002207047200000200148C0687047000068
:10273000200000202DE9F0410025474E706B002855
:1027400005D0B069401CB0612846BDE8F081F4684E
:10275000641CF4608CB9B06B006828B140F6C722E5
:102760003EA143A0FDF7EAFDB06BF16BB163F063EE
:10277000306A401C3062FEF7E5FFB06A404F844289
:102780000FD34FF0000CB06B006838B1B06BC0686D
:10279000C1684868844212D2B06202E04FF0FF3054
:1027A000B0623068C06A00EB800057F82000012852
:1027B00000D90125F0690028C6D00125C4E74A697F
:1027C000D1E902309860D1E90203586050680B1DCE
:1027D000984201D1C8685060C1F814C01068401E0A
:1027E00010608A6A9AB1D1E90780C8F80800D1E977
:1027F0000708C8F80400506801F11808404501D1E5
:10280000086A5060C1F828C01068401E1060C86A8D
:102810000122D6F81080824042EA0802326100EBC1
:10282000800007EB800042688A609068C86090680A
:1028300043609360C86A00EB800007EB80024A6146
:1028400057F82020521C47F82020C86A3168C96A0E
:10285000884298D3012596E7200000202E2E5C4662
:1028600072656552544F535C7461736B732E6300D1
:102870004572726F723A2025732C2025640D0A0070
:10288000C401002070B50446002600284BD0274D17
:102890002868844205D041F24F0225A129A0FDF706
:1028A0004DFD206D28B941F2500221A125A0FDF770
:1028B00045FD206D401E2065E26CE16A914232D0F8
:1028C00088BB201DFFF77AF9012130B994F82C005C
:1028D0002A6901FA00F082432A61E06CE062C0F1EB
:1028E0002000A061E06A2A69814011432961194AE8
:1028F00000EB800002EB80004068A0608168E1602E
:102900008368211D59608160E06A00EB800002EB62
:1029100080006061E06A00EB800052F82010491CE2
:1029200042F820100126304670BD00002000002033
:102930002E2E5C4672656552544F535C7461736B06
:10294000732E63004572726F723A2025732C202516
:10295000640D0A00C401002070B5C068C468002C72
:1029600005D140F6824230A134A0FDF7E7FCA06A11
:10297000D4E907128A60D4E907125160426804F171
:1029800018018A4201D1226A42600025A5620268CC
:10299000521E02602D4A506B012398B12C4D68687D
:1029A000E06186682662866871608160A562286839
:1029B000401C2860E06A1168C96A884231D9012048
:1029C000D36170BD6069D4E90261B160D4E90216D7
:1029D00071604668211D8E4201D1E66846606561DE
:1029E00005686D1E0560E06A166903FA00F5354357
:1029F0001561184D00EB800005EB80004068A06079
:102A00008668E660866871608160E06A00EB80003D
:102A100005EB8001616155F82010491C45F8201034
:102A2000C8E7002070BD00002E2E5C46726565521E
:102A3000544F535C7461736B732E63004572726FF5
:102A4000723A2025732C2025640D0A0020000020F6
:102A50006C040020C40100202DE9F0410024A046B0
:102A6000434D686B002805D140F6B30241A146A052
:102A7000FDF764FCFFF7E8F8686B401E6863686B5D
:102A8000002870D1A86800286DD00027424A01268E
:102A90004DE0D068C468A16AD4E907309860D4E9F1
:102AA000070358604B6804F11800834201D1206A83
:102AB0004860A7620868401E08606169D4E9023076
:102AC0009860D4E9020358604B68201D834201D10D
:102AD000E3684B6067610B685B1E0B60E16AD5F8C9
:102AE00010C006FA01F343EA0C032B612B4B01EBF8
:102AF000810103EB81014968A160D1F808C0C4F8E5
:102B00000CC0D1F808C0CCF804008860E06A00EB83
:102B1000800003EB8001616153F82010491C43F8E9
:102B20002010E06A2968C96A884200D3EE61106803
:102B30000028AED10CB1FEF705FEAC693CB1FFF741
:102B4000F9FD00B1EE61641E002CF8D1AF61E869B7
:102B500048B14FF0010812494FF080500860BFF3B0
:102B60004F8FBFF36F8FFFF7ABF84046BDE8F081A2
:102B7000200000202E2E5C4672656552544F535C37
:102B80007461736B732E63004572726F723A202505
:102B9000732C2025640D0A006C040020C401002061
:102BA00004ED00E01CB50024FEF79AFA0C4800681A
:102BB00060B10B481F21001DCDE9001000234FF428
:102BC000807208A10948FFF771FD04462CB940F254
:102BD000191207A10CA0FDF7B1FB20461CBD000097
:102BE00060000020546D72205376630021180008A5
:102BF0002E2E5C4672656552544F535C74696D6548
:102C000072732E63000000004572726F723A2025C5
:102C1000732C2025640D0A004FF04070E1EE100A7D
:102C200070470000442C000800000020BC00000099
:102C3000C4010008002D0008BC0000207432000010
:102C4000E00100080000000000000000000000009B
:102C50000000000001020304010203040607080942
:102C60000100000000000000000000000000000063
:102C70000000000000000000000000000000000054
:102C80000000000000000000000000000000000044
:102C9000000000001F000000000000000000000015
:102CA0000000000000000000000000000000000024
:102CB000000000000000000000000000AAAAAAAA6C
:102CC0000000000000000000000000000000000004
:102CD00000000000000000000000000000000000F4
:102CE00000000000007A030A00000000000000005D
:102CF00001020304060708090000000000000000AC
:040000050800018965
:00000001FF
